{
  "_format": "hh-sol-artifact-1",
  "contractName": "EpicNFTContract",
  "sourceName": "contracts/MyEpicNFT.sol",
  "abi": [
    {
      "inputs": [],
      "stateMutability": "nonpayable",
      "type": "constructor"
    },
    {
      "anonymous": false,
      "inputs": [
        {
          "indexed": true,
          "internalType": "address",
          "name": "owner",
          "type": "address"
        },
        {
          "indexed": true,
          "internalType": "address",
          "name": "approved",
          "type": "address"
        },
        {
          "indexed": true,
          "internalType": "uint256",
          "name": "tokenId",
          "type": "uint256"
        }
      ],
      "name": "Approval",
      "type": "event"
    },
    {
      "anonymous": false,
      "inputs": [
        {
          "indexed": true,
          "internalType": "address",
          "name": "owner",
          "type": "address"
        },
        {
          "indexed": true,
          "internalType": "address",
          "name": "operator",
          "type": "address"
        },
        {
          "indexed": false,
          "internalType": "bool",
          "name": "approved",
          "type": "bool"
        }
      ],
      "name": "ApprovalForAll",
      "type": "event"
    },
    {
      "anonymous": false,
      "inputs": [
        {
          "indexed": false,
          "internalType": "address",
          "name": "sender",
          "type": "address"
        },
        {
          "indexed": false,
          "internalType": "uint256",
          "name": "tokenId",
          "type": "uint256"
        }
      ],
      "name": "NewEpicNFTMinted",
      "type": "event"
    },
    {
      "anonymous": false,
      "inputs": [
        {
          "indexed": true,
          "internalType": "address",
          "name": "from",
          "type": "address"
        },
        {
          "indexed": true,
          "internalType": "address",
          "name": "to",
          "type": "address"
        },
        {
          "indexed": true,
          "internalType": "uint256",
          "name": "tokenId",
          "type": "uint256"
        }
      ],
      "name": "Transfer",
      "type": "event"
    },
    {
      "inputs": [
        {
          "internalType": "address",
          "name": "to",
          "type": "address"
        },
        {
          "internalType": "uint256",
          "name": "tokenId",
          "type": "uint256"
        }
      ],
      "name": "approve",
      "outputs": [],
      "stateMutability": "nonpayable",
      "type": "function"
    },
    {
      "inputs": [
        {
          "internalType": "address",
          "name": "owner",
          "type": "address"
        }
      ],
      "name": "balanceOf",
      "outputs": [
        {
          "internalType": "uint256",
          "name": "",
          "type": "uint256"
        }
      ],
      "stateMutability": "view",
      "type": "function"
    },
    {
      "inputs": [],
      "name": "getAllHolders",
      "outputs": [
        {
          "internalType": "address[]",
          "name": "",
          "type": "address[]"
        }
      ],
      "stateMutability": "view",
      "type": "function"
    },
    {
      "inputs": [
        {
          "internalType": "uint256",
          "name": "tokenId",
          "type": "uint256"
        }
      ],
      "name": "getApproved",
      "outputs": [
        {
          "internalType": "address",
          "name": "",
          "type": "address"
        }
      ],
      "stateMutability": "view",
      "type": "function"
    },
    {
      "inputs": [
        {
          "internalType": "address",
          "name": "owner",
          "type": "address"
        },
        {
          "internalType": "address",
          "name": "operator",
          "type": "address"
        }
      ],
      "name": "isApprovedForAll",
      "outputs": [
        {
          "internalType": "bool",
          "name": "",
          "type": "bool"
        }
      ],
      "stateMutability": "view",
      "type": "function"
    },
    {
      "inputs": [],
      "name": "makeAnEpicNFT",
      "outputs": [],
      "stateMutability": "nonpayable",
      "type": "function"
    },
    {
      "inputs": [],
      "name": "name",
      "outputs": [
        {
          "internalType": "string",
          "name": "",
          "type": "string"
        }
      ],
      "stateMutability": "view",
      "type": "function"
    },
    {
      "inputs": [
        {
          "internalType": "uint256",
          "name": "tokenId",
          "type": "uint256"
        }
      ],
      "name": "ownerOf",
      "outputs": [
        {
          "internalType": "address",
          "name": "",
          "type": "address"
        }
      ],
      "stateMutability": "view",
      "type": "function"
    },
    {
      "inputs": [
        {
          "internalType": "uint256",
          "name": "tokenId",
          "type": "uint256"
        }
      ],
      "name": "pickRandomColor",
      "outputs": [
        {
          "internalType": "string",
          "name": "",
          "type": "string"
        }
      ],
      "stateMutability": "view",
      "type": "function"
    },
    {
      "inputs": [
        {
          "internalType": "uint256",
          "name": "tokenId",
          "type": "uint256"
        }
      ],
      "name": "pickRandomFirstWord",
      "outputs": [
        {
          "internalType": "string",
          "name": "",
          "type": "string"
        }
      ],
      "stateMutability": "view",
      "type": "function"
    },
    {
      "inputs": [
        {
          "internalType": "uint256",
          "name": "tokenId",
          "type": "uint256"
        }
      ],
      "name": "pickRandomSecondWord",
      "outputs": [
        {
          "internalType": "string",
          "name": "",
          "type": "string"
        }
      ],
      "stateMutability": "view",
      "type": "function"
    },
    {
      "inputs": [
        {
          "internalType": "uint256",
          "name": "tokenId",
          "type": "uint256"
        }
      ],
      "name": "pickRandomThirdWord",
      "outputs": [
        {
          "internalType": "string",
          "name": "",
          "type": "string"
        }
      ],
      "stateMutability": "view",
      "type": "function"
    },
    {
      "inputs": [
        {
          "internalType": "address",
          "name": "from",
          "type": "address"
        },
        {
          "internalType": "address",
          "name": "to",
          "type": "address"
        },
        {
          "internalType": "uint256",
          "name": "tokenId",
          "type": "uint256"
        }
      ],
      "name": "safeTransferFrom",
      "outputs": [],
      "stateMutability": "nonpayable",
      "type": "function"
    },
    {
      "inputs": [
        {
          "internalType": "address",
          "name": "from",
          "type": "address"
        },
        {
          "internalType": "address",
          "name": "to",
          "type": "address"
        },
        {
          "internalType": "uint256",
          "name": "tokenId",
          "type": "uint256"
        },
        {
          "internalType": "bytes",
          "name": "_data",
          "type": "bytes"
        }
      ],
      "name": "safeTransferFrom",
      "outputs": [],
      "stateMutability": "nonpayable",
      "type": "function"
    },
    {
      "inputs": [
        {
          "internalType": "address",
          "name": "operator",
          "type": "address"
        },
        {
          "internalType": "bool",
          "name": "approved",
          "type": "bool"
        }
      ],
      "name": "setApprovalForAll",
      "outputs": [],
      "stateMutability": "nonpayable",
      "type": "function"
    },
    {
      "inputs": [
        {
          "internalType": "bytes4",
          "name": "interfaceId",
          "type": "bytes4"
        }
      ],
      "name": "supportsInterface",
      "outputs": [
        {
          "internalType": "bool",
          "name": "",
          "type": "bool"
        }
      ],
      "stateMutability": "view",
      "type": "function"
    },
    {
      "inputs": [],
      "name": "symbol",
      "outputs": [
        {
          "internalType": "string",
          "name": "",
          "type": "string"
        }
      ],
      "stateMutability": "view",
      "type": "function"
    },
    {
      "inputs": [
        {
          "internalType": "uint256",
          "name": "tokenId",
          "type": "uint256"
        }
      ],
      "name": "tokenURI",
      "outputs": [
        {
          "internalType": "string",
          "name": "",
          "type": "string"
        }
      ],
      "stateMutability": "view",
      "type": "function"
    },
    {
      "inputs": [
        {
          "internalType": "address",
          "name": "from",
          "type": "address"
        },
        {
          "internalType": "address",
          "name": "to",
          "type": "address"
        },
        {
          "internalType": "uint256",
          "name": "tokenId",
          "type": "uint256"
        }
      ],
      "name": "transferFrom",
      "outputs": [],
      "stateMutability": "nonpayable",
      "type": "function"
    }
  ],
  "bytecode": "0x608060405260405180610100016040528060d381526020016200466160d39139600990805190602001906200003692919062000619565b506040518060800160405280605681526020016200473460569139600a90805190602001906200006892919062000619565b5060405180606001604052806040518060400160405280600681526020017f4e6174757265000000000000000000000000000000000000000000000000000081525081526020016040518060400160405280600581526020017f4f6365616e00000000000000000000000000000000000000000000000000000081525081526020016040518060400160405280600681526020017f416e696d616c0000000000000000000000000000000000000000000000000000815250815250600b90600362000135929190620006aa565b5060405180606001604052806040518060400160405280600381526020017f416972000000000000000000000000000000000000000000000000000000000081525081526020016040518060400160405280600481526020017f466972650000000000000000000000000000000000000000000000000000000081525081526020016040518060400160405280600581526020017f4561727468000000000000000000000000000000000000000000000000000000815250815250600c90600362000202929190620006aa565b5060405180606001604052806040518060400160405280600781526020017f506f6b656d6f6e0000000000000000000000000000000000000000000000000081525081526020016040518060400160405280600581526020017f50697a7a6100000000000000000000000000000000000000000000000000000081525081526020016040518060400160405280600781526020017f49726f6e6d616e00000000000000000000000000000000000000000000000000815250815250600d906003620002cf929190620006aa565b506040518060c001604052806040518060400160405280600381526020017f726564000000000000000000000000000000000000000000000000000000000081525081526020016040518060400160405280600781526020017f233038433241380000000000000000000000000000000000000000000000000081525081526020016040518060400160405280600581526020017f626c61636b00000000000000000000000000000000000000000000000000000081525081526020016040518060400160405280600681526020017f79656c6c6f77000000000000000000000000000000000000000000000000000081525081526020016040518060400160405280600481526020017f626c75650000000000000000000000000000000000000000000000000000000081525081526020016040518060400160405280600581526020017f677265656e000000000000000000000000000000000000000000000000000000815250815250600e9060066200044d92919062000711565b503480156200045b57600080fd5b506040518060400160405280600981526020017f536f6369616c4e465400000000000000000000000000000000000000000000008152506040518060400160405280600681526020017f534f4349414c00000000000000000000000000000000000000000000000000008152508160009080519060200190620004e092919062000619565b508060019080519060200190620004f992919062000619565b505050620005476040518060400160405280601e81526020017f54686973206973206d79204e465420636f6e74726163742e20576f61682100008152506200054d60201b620012bf1760201c565b62000932565b620005ed8160405160240162000564919062000846565b6040516020818303038152906040527f41304fac000000000000000000000000000000000000000000000000000000007bffffffffffffffffffffffffffffffffffffffffffffffffffffffff19166020820180517bffffffffffffffffffffffffffffffffffffffffffffffffffffffff8381831617835250505050620005f060201b60201c565b50565b60008151905060006a636f6e736f6c652e6c6f679050602083016000808483855afa5050505050565b8280546200062790620008bc565b90600052602060002090601f0160209004810192826200064b576000855562000697565b82601f106200066657805160ff191683800117855562000697565b8280016001018555821562000697579182015b828111156200069657825182559160200191906001019062000679565b5b509050620006a6919062000778565b5090565b828054828255906000526020600020908101928215620006fe579160200282015b82811115620006fd578251829080519060200190620006ec92919062000619565b5091602001919060010190620006cb565b5b5090506200070d919062000797565b5090565b82805482825590600052602060002090810192821562000765579160200282015b82811115620007645782518290805190602001906200075392919062000619565b509160200191906001019062000732565b5b50905062000774919062000797565b5090565b5b808211156200079357600081600090555060010162000779565b5090565b5b80821115620007bb5760008181620007b19190620007bf565b5060010162000798565b5090565b508054620007cd90620008bc565b6000825580601f10620007e1575062000802565b601f01602090049060005260206000209081019062000801919062000778565b5b50565b600062000812826200086a565b6200081e818562000875565b93506200083081856020860162000886565b6200083b8162000921565b840191505092915050565b6000602082019050818103600083015262000862818462000805565b905092915050565b600081519050919050565b600082825260208201905092915050565b60005b83811015620008a657808201518184015260208101905062000889565b83811115620008b6576000848401525b50505050565b60006002820490506001821680620008d557607f821691505b60208210811415620008ec57620008eb620008f2565b5b50919050565b7f4e487b7100000000000000000000000000000000000000000000000000000000600052602260045260246000fd5b6000601f19601f8301169050919050565b613d1f80620009426000396000f3fe608060405234801561001057600080fd5b50600436106101215760003560e01c80636352211e116100ad578063b88d4fde11610071578063b88d4fde14610340578063c575757a1461035c578063c87b56dd1461038c578063de9d132f146103bc578063e985e9c5146103c657610121565b80636352211e1461027657806370a08231146102a657806395d89b41146102d6578063a22cb465146102f4578063b187301f1461031057610121565b80631d92f25e116100f45780631d92f25e146101c057806323b872dd146101de5780632de38d68146101fa57806342842e0e1461022a578063514dc8c61461024657610121565b806301ffc9a71461012657806306fdde0314610156578063081812fc14610174578063095ea7b3146101a4575b600080fd5b610140600480360381019061013b91906126eb565b6103f6565b60405161014d9190612efb565b60405180910390f35b61015e6104d8565b60405161016b9190612f16565b60405180910390f35b61018e6004803603810190610189919061273d565b61056a565b60405161019b9190612e49565b60405180910390f35b6101be60048036038101906101b991906126af565b6105ef565b005b6101c8610707565b6040516101d59190612ed9565b60405180910390f35b6101f860048036038101906101f391906125a9565b610795565b005b610214600480360381019061020f919061273d565b6107f5565b6040516102219190612f16565b60405180910390f35b610244600480360381019061023f91906125a9565b610913565b005b610260600480360381019061025b919061273d565b610933565b60405161026d9190612f16565b60405180910390f35b610290600480360381019061028b919061273d565b610a51565b60405161029d9190612e49565b60405180910390f35b6102c060048036038101906102bb9190612544565b610b03565b6040516102cd9190613176565b60405180910390f35b6102de610bbb565b6040516102eb9190612f16565b60405180910390f35b61030e60048036038101906103099190612673565b610c4d565b005b61032a6004803603810190610325919061273d565b610c63565b6040516103379190612f16565b60405180910390f35b61035a600480360381019061035591906125f8565b610d81565b005b6103766004803603810190610371919061273d565b610de3565b6040516103839190612f16565b60405180910390f35b6103a660048036038101906103a1919061273d565b610f01565b6040516103b39190612f16565b60405180910390f35b6103c4611053565b005b6103e060048036038101906103db919061256d565b61122b565b6040516103ed9190612efb565b60405180910390f35b60007f80ac58cd000000000000000000000000000000000000000000000000000000007bffffffffffffffffffffffffffffffffffffffffffffffffffffffff1916827bffffffffffffffffffffffffffffffffffffffffffffffffffffffff191614806104c157507f5b5e139f000000000000000000000000000000000000000000000000000000007bffffffffffffffffffffffffffffffffffffffffffffffffffffffff1916827bffffffffffffffffffffffffffffffffffffffffffffffffffffffff1916145b806104d157506104d082611358565b5b9050919050565b6060600080546104e790613443565b80601f016020809104026020016040519081016040528092919081815260200182805461051390613443565b80156105605780601f1061053557610100808354040283529160200191610560565b820191906000526020600020905b81548152906001019060200180831161054357829003601f168201915b5050505050905090565b6000610575826113c2565b6105b4576040517f08c379a00000000000000000000000000000000000000000000000000000000081526004016105ab906130f6565b60405180910390fd5b6004600083815260200190815260200160002060009054906101000a900473ffffffffffffffffffffffffffffffffffffffff169050919050565b60006105fa82610a51565b90508073ffffffffffffffffffffffffffffffffffffffff168373ffffffffffffffffffffffffffffffffffffffff16141561066b576040517f08c379a000000000000000000000000000000000000000000000000000000000815260040161066290613136565b60405180910390fd5b8073ffffffffffffffffffffffffffffffffffffffff1661068a61142e565b73ffffffffffffffffffffffffffffffffffffffff1614806106b957506106b8816106b361142e565b61122b565b5b6106f8576040517f08c379a00000000000000000000000000000000000000000000000000000000081526004016106ef90613036565b60405180910390fd5b6107028383611436565b505050565b6060600880548060200260200160405190810160405280929190818152602001828054801561078b57602002820191906000526020600020905b8160009054906101000a900473ffffffffffffffffffffffffffffffffffffffff1673ffffffffffffffffffffffffffffffffffffffff1681526020019060010190808311610741575b5050505050905090565b6107a66107a061142e565b826114ef565b6107e5576040517f08c379a00000000000000000000000000000000000000000000000000000000081526004016107dc90613156565b60405180910390fd5b6107f08383836115cd565b505050565b6060600061082961080584611834565b6040516020016108159190612de3565b6040516020818303038152906040526119e1565b9050600b805490508161083c91906134ef565b9050600b8181548110610878577f4e487b7100000000000000000000000000000000000000000000000000000000600052603260045260246000fd5b90600052602060002001805461088d90613443565b80601f01602080910402602001604051908101604052809291908181526020018280546108b990613443565b80156109065780601f106108db57610100808354040283529160200191610906565b820191906000526020600020905b8154815290600101906020018083116108e957829003601f168201915b5050505050915050919050565b61092e83838360405180602001604052806000815250610d81565b505050565b6060600061096761094384611834565b6040516020016109539190612e27565b6040516020818303038152906040526119e1565b9050600e805490508161097a91906134ef565b9050600e81815481106109b6577f4e487b7100000000000000000000000000000000000000000000000000000000600052603260045260246000fd5b9060005260206000200180546109cb90613443565b80601f01602080910402602001604051908101604052809291908181526020018280546109f790613443565b8015610a445780601f10610a1957610100808354040283529160200191610a44565b820191906000526020600020905b815481529060010190602001808311610a2757829003601f168201915b5050505050915050919050565b6000806002600084815260200190815260200160002060009054906101000a900473ffffffffffffffffffffffffffffffffffffffff169050600073ffffffffffffffffffffffffffffffffffffffff168173ffffffffffffffffffffffffffffffffffffffff161415610afa576040517f08c379a0000000000000000000000000000000000000000000000000000000008152600401610af190613076565b60405180910390fd5b80915050919050565b60008073ffffffffffffffffffffffffffffffffffffffff168273ffffffffffffffffffffffffffffffffffffffff161415610b74576040517f08c379a0000000000000000000000000000000000000000000000000000000008152600401610b6b90613056565b60405180910390fd5b600360008373ffffffffffffffffffffffffffffffffffffffff1673ffffffffffffffffffffffffffffffffffffffff168152602001908152602001600020549050919050565b606060018054610bca90613443565b80601f0160208091040260200160405190810160405280929190818152602001828054610bf690613443565b8015610c435780601f10610c1857610100808354040283529160200191610c43565b820191906000526020600020905b815481529060010190602001808311610c2657829003601f168201915b5050505050905090565b610c5f610c5861142e565b8383611a14565b5050565b60606000610c97610c7384611834565b604051602001610c839190612d7c565b6040516020818303038152906040526119e1565b9050600c8054905081610caa91906134ef565b9050600c8181548110610ce6577f4e487b7100000000000000000000000000000000000000000000000000000000600052603260045260246000fd5b906000526020600020018054610cfb90613443565b80601f0160208091040260200160405190810160405280929190818152602001828054610d2790613443565b8015610d745780601f10610d4957610100808354040283529160200191610d74565b820191906000526020600020905b815481529060010190602001808311610d5757829003601f168201915b5050505050915050919050565b610d92610d8c61142e565b836114ef565b610dd1576040517f08c379a0000000000000000000000000000000000000000000000000000000008152600401610dc890613156565b60405180910390fd5b610ddd84848484611b81565b50505050565b60606000610e17610df384611834565b604051602001610e039190612d5a565b6040516020818303038152906040526119e1565b9050600d8054905081610e2a91906134ef565b9050600d8181548110610e66577f4e487b7100000000000000000000000000000000000000000000000000000000600052603260045260246000fd5b906000526020600020018054610e7b90613443565b80601f0160208091040260200160405190810160405280929190818152602001828054610ea790613443565b8015610ef45780601f10610ec957610100808354040283529160200191610ef4565b820191906000526020600020905b815481529060010190602001808311610ed757829003601f168201915b5050505050915050919050565b6060610f0c826113c2565b610f4b576040517f08c379a0000000000000000000000000000000000000000000000000000000008152600401610f42906130d6565b60405180910390fd5b6000600660008481526020019081526020016000208054610f6b90613443565b80601f0160208091040260200160405190810160405280929190818152602001828054610f9790613443565b8015610fe45780601f10610fb957610100808354040283529160200191610fe4565b820191906000526020600020905b815481529060010190602001808311610fc757829003601f168201915b505050505090506000610ff5611bdd565b905060008151141561100b57819250505061104e565b600082511115611040578082604051602001611028929190612cbc565b6040516020818303038152906040529250505061104e565b61104984611bf4565b925050505b919050565b600061105f6007611c9b565b9050600061106c826107f5565b9050600061107983610c63565b9050600061108684610de3565b9050600083838360405160200161109f93929190612ce0565b604051602081830303815290604052905060006110bb86610933565b90506000600982600a856040516020016110d89493929190612d11565b6040516020818303038152906040529050600061111d846110f884611ca9565b604051602001611109929190612d9e565b604051602081830303815290604052611ca9565b90506000816040516020016111329190612e05565b604051602081830303815290604052905061114d338a611e67565b6111578982611e85565b6008339080600181540180825580915050600190039060005260206000200160009091909190916101000a81548173ffffffffffffffffffffffffffffffffffffffff021916908373ffffffffffffffffffffffffffffffffffffffff1602179055506111c46007611ef9565b6111e7604051806060016040528060258152602001613c85602591398a33611f0f565b7febb98688741ffa4c7589bf325de30cf7becb63de567842e1ccdb6cb949fdc82c338a604051611218929190612eb0565b60405180910390a1505050505050505050565b6000600560008473ffffffffffffffffffffffffffffffffffffffff1673ffffffffffffffffffffffffffffffffffffffff16815260200190815260200160002060008373ffffffffffffffffffffffffffffffffffffffff1673ffffffffffffffffffffffffffffffffffffffff16815260200190815260200160002060009054906101000a900460ff16905092915050565b611355816040516024016112d39190612f16565b6040516020818303038152906040527f41304fac000000000000000000000000000000000000000000000000000000007bffffffffffffffffffffffffffffffffffffffffffffffffffffffff19166020820180517bffffffffffffffffffffffffffffffffffffffffffffffffffffffff8381831617835250505050611fae565b50565b60007f01ffc9a7000000000000000000000000000000000000000000000000000000007bffffffffffffffffffffffffffffffffffffffffffffffffffffffff1916827bffffffffffffffffffffffffffffffffffffffffffffffffffffffff1916149050919050565b60008073ffffffffffffffffffffffffffffffffffffffff166002600084815260200190815260200160002060009054906101000a900473ffffffffffffffffffffffffffffffffffffffff1673ffffffffffffffffffffffffffffffffffffffff1614159050919050565b600033905090565b816004600083815260200190815260200160002060006101000a81548173ffffffffffffffffffffffffffffffffffffffff021916908373ffffffffffffffffffffffffffffffffffffffff160217905550808273ffffffffffffffffffffffffffffffffffffffff166114a983610a51565b73ffffffffffffffffffffffffffffffffffffffff167f8c5be1e5ebec7d5bd14f71427d1e84f3dd0314c0f7b2291e5b200ac8c7c3b92560405160405180910390a45050565b60006114fa826113c2565b611539576040517f08c379a000000000000000000000000000000000000000000000000000000000815260040161153090613016565b60405180910390fd5b600061154483610a51565b90508073ffffffffffffffffffffffffffffffffffffffff168473ffffffffffffffffffffffffffffffffffffffff1614806115b357508373ffffffffffffffffffffffffffffffffffffffff1661159b8461056a565b73ffffffffffffffffffffffffffffffffffffffff16145b806115c457506115c3818561122b565b5b91505092915050565b8273ffffffffffffffffffffffffffffffffffffffff166115ed82610a51565b73ffffffffffffffffffffffffffffffffffffffff1614611643576040517f08c379a000000000000000000000000000000000000000000000000000000000815260040161163a90612f96565b60405180910390fd5b600073ffffffffffffffffffffffffffffffffffffffff168273ffffffffffffffffffffffffffffffffffffffff1614156116b3576040517f08c379a00000000000000000000000000000000000000000000000000000000081526004016116aa90612fd6565b60405180910390fd5b6116be838383611fd7565b6116c9600082611436565b6001600360008573ffffffffffffffffffffffffffffffffffffffff1673ffffffffffffffffffffffffffffffffffffffff16815260200190815260200160002060008282546117199190613359565b925050819055506001600360008473ffffffffffffffffffffffffffffffffffffffff1673ffffffffffffffffffffffffffffffffffffffff16815260200190815260200160002060008282546117709190613278565b92505081905550816002600083815260200190815260200160002060006101000a81548173ffffffffffffffffffffffffffffffffffffffff021916908373ffffffffffffffffffffffffffffffffffffffff160217905550808273ffffffffffffffffffffffffffffffffffffffff168473ffffffffffffffffffffffffffffffffffffffff167fddf252ad1be2c89b69c2b068fc378daa952ba7f163c4a11628f55a4df523b3ef60405160405180910390a461182f838383611fdc565b505050565b6060600082141561187c576040518060400160405280600181526020017f300000000000000000000000000000000000000000000000000000000000000081525090506119dc565b600082905060005b600082146118ae578080611897906134a6565b915050600a826118a791906132ce565b9150611884565b60008167ffffffffffffffff8111156118f0577f4e487b7100000000000000000000000000000000000000000000000000000000600052604160045260246000fd5b6040519080825280601f01601f1916602001820160405280156119225781602001600182028036833780820191505090505b5090505b600085146119d55760018261193b9190613359565b9150600a8561194a91906134ef565b60306119569190613278565b60f81b818381518110611992577f4e487b7100000000000000000000000000000000000000000000000000000000600052603260045260246000fd5b60200101907effffffffffffffffffffffffffffffffffffffffffffffffffffffffffffff1916908160001a905350600a856119ce91906132ce565b9450611926565b8093505050505b919050565b6000816040516020016119f49190612ca5565b6040516020818303038152906040528051906020012060001c9050919050565b8173ffffffffffffffffffffffffffffffffffffffff168373ffffffffffffffffffffffffffffffffffffffff161415611a83576040517f08c379a0000000000000000000000000000000000000000000000000000000008152600401611a7a90612ff6565b60405180910390fd5b80600560008573ffffffffffffffffffffffffffffffffffffffff1673ffffffffffffffffffffffffffffffffffffffff16815260200190815260200160002060008473ffffffffffffffffffffffffffffffffffffffff1673ffffffffffffffffffffffffffffffffffffffff16815260200190815260200160002060006101000a81548160ff0219169083151502179055508173ffffffffffffffffffffffffffffffffffffffff168373ffffffffffffffffffffffffffffffffffffffff167f17307eab39ab6107e8899845ad3d59bd9653f200f220920489ca2b5937696c3183604051611b749190612efb565b60405180910390a3505050565b611b8c8484846115cd565b611b9884848484611fe1565b611bd7576040517f08c379a0000000000000000000000000000000000000000000000000000000008152600401611bce90612f76565b60405180910390fd5b50505050565b606060405180602001604052806000815250905090565b6060611bff826113c2565b611c3e576040517f08c379a0000000000000000000000000000000000000000000000000000000008152600401611c3590613116565b60405180910390fd5b6000611c48611bdd565b90506000815111611c685760405180602001604052806000815250611c93565b80611c7284611834565b604051602001611c83929190612cbc565b6040516020818303038152906040525b915050919050565b600081600001549050919050565b60606000825190506000811415611cd25760405180602001604052806000815250915050611e62565b60006003600283611ce39190613278565b611ced91906132ce565b6004611cf991906132ff565b90506000602082611d0a9190613278565b67ffffffffffffffff811115611d49577f4e487b7100000000000000000000000000000000000000000000000000000000600052604160045260246000fd5b6040519080825280601f01601f191660200182016040528015611d7b5781602001600182028036833780820191505090505b5090506000604051806060016040528060408152602001613caa604091399050600181016020830160005b86811015611e1f5760038101905062ffffff818a015116603f8160121c168401518060081b905060ff603f83600c1c1686015116810190508060081b905060ff603f8360061c1686015116810190508060081b905060ff603f831686015116810190508060e01b90508084526004840193505050611da6565b506003860660018114611e395760028114611e4957611e54565b613d3d60f01b6002830352611e54565b603d60f81b60018303525b508484525050819450505050505b919050565b611e81828260405180602001604052806000815250612178565b5050565b611e8e826113c2565b611ecd576040517f08c379a0000000000000000000000000000000000000000000000000000000008152600401611ec490613096565b60405180910390fd5b80600660008481526020019081526020016000209080519060200190611ef49291906123d0565b505050565b6001816000016000828254019250508190555050565b611fa9838383604051602401611f2793929190612f38565b6040516020818303038152906040527fe3849f79000000000000000000000000000000000000000000000000000000007bffffffffffffffffffffffffffffffffffffffffffffffffffffffff19166020820180517bffffffffffffffffffffffffffffffffffffffffffffffffffffffff8381831617835250505050611fae565b505050565b60008151905060006a636f6e736f6c652e6c6f679050602083016000808483855afa5050505050565b505050565b505050565b60006120028473ffffffffffffffffffffffffffffffffffffffff166121d3565b1561216b578373ffffffffffffffffffffffffffffffffffffffff1663150b7a0261202b61142e565b8786866040518563ffffffff1660e01b815260040161204d9493929190612e64565b602060405180830381600087803b15801561206757600080fd5b505af192505050801561209857506040513d601f19601f820116820180604052508101906120959190612714565b60015b61211b573d80600081146120c8576040519150601f19603f3d011682016040523d82523d6000602084013e6120cd565b606091505b50600081511415612113576040517f08c379a000000000000000000000000000000000000000000000000000000000815260040161210a90612f76565b60405180910390fd5b805181602001fd5b63150b7a0260e01b7bffffffffffffffffffffffffffffffffffffffffffffffffffffffff1916817bffffffffffffffffffffffffffffffffffffffffffffffffffffffff191614915050612170565b600190505b949350505050565b61218283836121f6565b61218f6000848484611fe1565b6121ce576040517f08c379a00000000000000000000000000000000000000000000000000000000081526004016121c590612f76565b60405180910390fd5b505050565b6000808273ffffffffffffffffffffffffffffffffffffffff163b119050919050565b600073ffffffffffffffffffffffffffffffffffffffff168273ffffffffffffffffffffffffffffffffffffffff161415612266576040517f08c379a000000000000000000000000000000000000000000000000000000000815260040161225d906130b6565b60405180910390fd5b61226f816113c2565b156122af576040517f08c379a00000000000000000000000000000000000000000000000000000000081526004016122a690612fb6565b60405180910390fd5b6122bb60008383611fd7565b6001600360008473ffffffffffffffffffffffffffffffffffffffff1673ffffffffffffffffffffffffffffffffffffffff168152602001908152602001600020600082825461230b9190613278565b92505081905550816002600083815260200190815260200160002060006101000a81548173ffffffffffffffffffffffffffffffffffffffff021916908373ffffffffffffffffffffffffffffffffffffffff160217905550808273ffffffffffffffffffffffffffffffffffffffff16600073ffffffffffffffffffffffffffffffffffffffff167fddf252ad1be2c89b69c2b068fc378daa952ba7f163c4a11628f55a4df523b3ef60405160405180910390a46123cc60008383611fdc565b5050565b8280546123dc90613443565b90600052602060002090601f0160209004810192826123fe5760008555612445565b82601f1061241757805160ff1916838001178555612445565b82800160010185558215612445579182015b82811115612444578251825591602001919060010190612429565b5b5090506124529190612456565b5090565b5b8082111561246f576000816000905550600101612457565b5090565b6000612486612481846131b6565b613191565b90508281526020810184848401111561249e57600080fd5b6124a9848285613401565b509392505050565b6000813590506124c081613c28565b92915050565b6000813590506124d581613c3f565b92915050565b6000813590506124ea81613c56565b92915050565b6000815190506124ff81613c56565b92915050565b600082601f83011261251657600080fd5b8135612526848260208601612473565b91505092915050565b60008135905061253e81613c6d565b92915050565b60006020828403121561255657600080fd5b6000612564848285016124b1565b91505092915050565b6000806040838503121561258057600080fd5b600061258e858286016124b1565b925050602061259f858286016124b1565b9150509250929050565b6000806000606084860312156125be57600080fd5b60006125cc868287016124b1565b93505060206125dd868287016124b1565b92505060406125ee8682870161252f565b9150509250925092565b6000806000806080858703121561260e57600080fd5b600061261c878288016124b1565b945050602061262d878288016124b1565b935050604061263e8782880161252f565b925050606085013567ffffffffffffffff81111561265b57600080fd5b61266787828801612505565b91505092959194509250565b6000806040838503121561268657600080fd5b6000612694858286016124b1565b92505060206126a5858286016124c6565b9150509250929050565b600080604083850312156126c257600080fd5b60006126d0858286016124b1565b92505060206126e18582860161252f565b9150509250929050565b6000602082840312156126fd57600080fd5b600061270b848285016124db565b91505092915050565b60006020828403121561272657600080fd5b6000612734848285016124f0565b91505092915050565b60006020828403121561274f57600080fd5b600061275d8482850161252f565b91505092915050565b6000612772838361277e565b60208301905092915050565b6127878161338d565b82525050565b6127968161338d565b82525050565b60006127a78261320c565b6127b1818561323a565b93506127bc836131e7565b8060005b838110156127ed5781516127d48882612766565b97506127df8361322d565b9250506001810190506127c0565b5085935050505092915050565b6128038161339f565b82525050565b600061281482613217565b61281e818561324b565b935061282e818560208601613410565b612837816135dc565b840191505092915050565b600061284d82613222565b612857818561325c565b9350612867818560208601613410565b612870816135dc565b840191505092915050565b600061288682613222565b612890818561326d565b93506128a0818560208601613410565b80840191505092915050565b600081546128b981613443565b6128c3818661326d565b945060018216600081146128de57600181146128ef57612922565b60ff19831686528186019350612922565b6128f8856131f7565b60005b8381101561291a578154818901526001820191506020810190506128fb565b838801955050505b50505092915050565b600061293860328361325c565b9150612943826135ed565b604082019050919050565b600061295b60258361325c565b91506129668261363c565b604082019050919050565b600061297e601c8361325c565b91506129898261368b565b602082019050919050565b60006129a1600a8361326d565b91506129ac826136b4565b600a82019050919050565b60006129c460248361325c565b91506129cf826136dd565b604082019050919050565b60006129e760198361325c565b91506129f28261372c565b602082019050919050565b6000612a0a600b8361326d565b9150612a1582613755565b600b82019050919050565b6000612a2d602c8361325c565b9150612a388261377e565b604082019050919050565b6000612a50600d8361326d565b9150612a5b826137cd565b600d82019050919050565b6000612a7360388361325c565b9150612a7e826137f6565b604082019050919050565b6000612a96602a8361325c565b9150612aa182613845565b604082019050919050565b6000612ab960298361325c565b9150612ac482613894565b604082019050919050565b6000612adc602e8361325c565b9150612ae7826138e3565b604082019050919050565b6000612aff60028361326d565b9150612b0a82613932565b600282019050919050565b6000612b2260208361325c565b9150612b2d8261395b565b602082019050919050565b6000612b4560318361325c565b9150612b5082613984565b604082019050919050565b6000612b68602c8361325c565b9150612b73826139d3565b604082019050919050565b6000612b8b602f8361325c565b9150612b9682613a22565b604082019050919050565b6000612bae600a8361326d565b9150612bb982613a71565b600a82019050919050565b6000612bd160218361325c565b9150612bdc82613a9a565b604082019050919050565b6000612bf4600a8361326d565b9150612bff82613ae9565b600a82019050919050565b6000612c17601d8361326d565b9150612c2282613b12565b601d82019050919050565b6000612c3a60318361325c565b9150612c4582613b3b565b604082019050919050565b6000612c5d60058361326d565b9150612c6882613b8a565b600582019050919050565b6000612c8060588361326d565b9150612c8b82613bb3565b605882019050919050565b612c9f816133f7565b82525050565b6000612cb1828461287b565b915081905092915050565b6000612cc8828561287b565b9150612cd4828461287b565b91508190509392505050565b6000612cec828661287b565b9150612cf8828561287b565b9150612d04828461287b565b9150819050949350505050565b6000612d1d82876128ac565b9150612d29828661287b565b9150612d3582856128ac565b9150612d41828461287b565b9150612d4c82612a43565b915081905095945050505050565b6000612d6582612994565b9150612d71828461287b565b915081905092915050565b6000612d87826129fd565b9150612d93828461287b565b915081905092915050565b6000612da982612ba1565b9150612db5828561287b565b9150612dc082612c73565b9150612dcc828461287b565b9150612dd782612af2565b91508190509392505050565b6000612dee82612be7565b9150612dfa828461287b565b915081905092915050565b6000612e1082612c0a565b9150612e1c828461287b565b915081905092915050565b6000612e3282612c50565b9150612e3e828461287b565b915081905092915050565b6000602082019050612e5e600083018461278d565b92915050565b6000608082019050612e79600083018761278d565b612e86602083018661278d565b612e936040830185612c96565b8181036060830152612ea58184612809565b905095945050505050565b6000604082019050612ec5600083018561278d565b612ed26020830184612c96565b9392505050565b60006020820190508181036000830152612ef3818461279c565b905092915050565b6000602082019050612f1060008301846127fa565b92915050565b60006020820190508181036000830152612f308184612842565b905092915050565b60006060820190508181036000830152612f528186612842565b9050612f616020830185612c96565b612f6e604083018461278d565b949350505050565b60006020820190508181036000830152612f8f8161292b565b9050919050565b60006020820190508181036000830152612faf8161294e565b9050919050565b60006020820190508181036000830152612fcf81612971565b9050919050565b60006020820190508181036000830152612fef816129b7565b9050919050565b6000602082019050818103600083015261300f816129da565b9050919050565b6000602082019050818103600083015261302f81612a20565b9050919050565b6000602082019050818103600083015261304f81612a66565b9050919050565b6000602082019050818103600083015261306f81612a89565b9050919050565b6000602082019050818103600083015261308f81612aac565b9050919050565b600060208201905081810360008301526130af81612acf565b9050919050565b600060208201905081810360008301526130cf81612b15565b9050919050565b600060208201905081810360008301526130ef81612b38565b9050919050565b6000602082019050818103600083015261310f81612b5b565b9050919050565b6000602082019050818103600083015261312f81612b7e565b9050919050565b6000602082019050818103600083015261314f81612bc4565b9050919050565b6000602082019050818103600083015261316f81612c2d565b9050919050565b600060208201905061318b6000830184612c96565b92915050565b600061319b6131ac565b90506131a78282613475565b919050565b6000604051905090565b600067ffffffffffffffff8211156131d1576131d06135ad565b5b6131da826135dc565b9050602081019050919050565b6000819050602082019050919050565b60008190508160005260206000209050919050565b600081519050919050565b600081519050919050565b600081519050919050565b6000602082019050919050565b600082825260208201905092915050565b600082825260208201905092915050565b600082825260208201905092915050565b600081905092915050565b6000613283826133f7565b915061328e836133f7565b9250827fffffffffffffffffffffffffffffffffffffffffffffffffffffffffffffffff038211156132c3576132c2613520565b5b828201905092915050565b60006132d9826133f7565b91506132e4836133f7565b9250826132f4576132f361354f565b5b828204905092915050565b600061330a826133f7565b9150613315836133f7565b9250817fffffffffffffffffffffffffffffffffffffffffffffffffffffffffffffffff048311821515161561334e5761334d613520565b5b828202905092915050565b6000613364826133f7565b915061336f836133f7565b92508282101561338257613381613520565b5b828203905092915050565b6000613398826133d7565b9050919050565b60008115159050919050565b60007fffffffff0000000000000000000000000000000000000000000000000000000082169050919050565b600073ffffffffffffffffffffffffffffffffffffffff82169050919050565b6000819050919050565b82818337600083830152505050565b60005b8381101561342e578082015181840152602081019050613413565b8381111561343d576000848401525b50505050565b6000600282049050600182168061345b57607f821691505b6020821081141561346f5761346e61357e565b5b50919050565b61347e826135dc565b810181811067ffffffffffffffff8211171561349d5761349c6135ad565b5b80604052505050565b60006134b1826133f7565b91507fffffffffffffffffffffffffffffffffffffffffffffffffffffffffffffffff8214156134e4576134e3613520565b5b600182019050919050565b60006134fa826133f7565b9150613505836133f7565b9250826135155761351461354f565b5b828206905092915050565b7f4e487b7100000000000000000000000000000000000000000000000000000000600052601160045260246000fd5b7f4e487b7100000000000000000000000000000000000000000000000000000000600052601260045260246000fd5b7f4e487b7100000000000000000000000000000000000000000000000000000000600052602260045260246000fd5b7f4e487b7100000000000000000000000000000000000000000000000000000000600052604160045260246000fd5b6000601f19601f8301169050919050565b7f4552433732313a207472616e7366657220746f206e6f6e20455243373231526560008201527f63656976657220696d706c656d656e7465720000000000000000000000000000602082015250565b7f4552433732313a207472616e736665722066726f6d20696e636f72726563742060008201527f6f776e6572000000000000000000000000000000000000000000000000000000602082015250565b7f4552433732313a20746f6b656e20616c7265616479206d696e74656400000000600082015250565b7f54484952445f574f524400000000000000000000000000000000000000000000600082015250565b7f4552433732313a207472616e7366657220746f20746865207a65726f2061646460008201527f7265737300000000000000000000000000000000000000000000000000000000602082015250565b7f4552433732313a20617070726f766520746f2063616c6c657200000000000000600082015250565b7f5345434f4e445f574f5244000000000000000000000000000000000000000000600082015250565b7f4552433732313a206f70657261746f7220717565727920666f72206e6f6e657860008201527f697374656e7420746f6b656e0000000000000000000000000000000000000000602082015250565b7f3c2f746578743e3c2f7376673e00000000000000000000000000000000000000600082015250565b7f4552433732313a20617070726f76652063616c6c6572206973206e6f74206f7760008201527f6e6572206e6f7220617070726f76656420666f7220616c6c0000000000000000602082015250565b7f4552433732313a2062616c616e636520717565727920666f7220746865207a6560008201527f726f206164647265737300000000000000000000000000000000000000000000602082015250565b7f4552433732313a206f776e657220717565727920666f72206e6f6e657869737460008201527f656e7420746f6b656e0000000000000000000000000000000000000000000000602082015250565b7f45524337323155524953746f726167653a2055524920736574206f66206e6f6e60008201527f6578697374656e7420746f6b656e000000000000000000000000000000000000602082015250565b7f227d000000000000000000000000000000000000000000000000000000000000600082015250565b7f4552433732313a206d696e7420746f20746865207a65726f2061646472657373600082015250565b7f45524337323155524953746f726167653a2055524920717565727920666f722060008201527f6e6f6e6578697374656e7420746f6b656e000000000000000000000000000000602082015250565b7f4552433732313a20617070726f76656420717565727920666f72206e6f6e657860008201527f697374656e7420746f6b656e0000000000000000000000000000000000000000602082015250565b7f4552433732314d657461646174613a2055524920717565727920666f72206e6f60008201527f6e6578697374656e7420746f6b656e0000000000000000000000000000000000602082015250565b7f7b226e616d65223a202200000000000000000000000000000000000000000000600082015250565b7f4552433732313a20617070726f76616c20746f2063757272656e74206f776e6560008201527f7200000000000000000000000000000000000000000000000000000000000000602082015250565b7f46495253545f574f524400000000000000000000000000000000000000000000600082015250565b7f646174613a6170706c69636174696f6e2f6a736f6e3b6261736536342c000000600082015250565b7f4552433732313a207472616e736665722063616c6c6572206973206e6f74206f60008201527f776e6572206e6f7220617070726f766564000000000000000000000000000000602082015250565b7f434f4c4f52000000000000000000000000000000000000000000000000000000600082015250565b7f222c20226465736372697074696f6e223a20224120686967686c79206163636c60008201527f61696d656420636f6c6c656374696f6e2e222c2022696d616765223a2022646160208201527f74613a696d6167652f7376672b786d6c3b6261736536342c0000000000000000604082015250565b613c318161338d565b8114613c3c57600080fd5b50565b613c488161339f565b8114613c5357600080fd5b50565b613c5f816133ab565b8114613c6a57600080fd5b50565b613c76816133f7565b8114613c8157600080fd5b5056fe416e204e465420772f20494420257320686173206265656e206d696e74656420746f2025734142434445464748494a4b4c4d4e4f505152535455565758595a6162636465666768696a6b6c6d6e6f707172737475767778797a303132333435363738392b2fa2646970667358221220ae2c8f5244f75bc69f1701bab47791120b77068944ce129bc7c82f44e722405e64736f6c634300080100333c73766720786d6c6e733d27687474703a2f2f7777772e77332e6f72672f323030302f73766727207072657365727665417370656374526174696f3d27784d696e594d696e206d656574272076696577426f783d273020302033353020333530273e3c7374796c653e2e62617365207b2066696c6c3a2077686974653b20666f6e742d66616d696c793a2073657269663b20666f6e742d73697a653a20323470783b207d3c2f7374796c653e3c726563742077696474683d273130302527206865696768743d2731303025272066696c6c3d27272f3e3c7465787420783d273530252720793d273530252720636c6173733d27626173652720646f6d696e616e742d626173656c696e653d276d6964646c652720746578742d616e63686f723d276d6964646c65273e",
  "linkReferences": {},
  "deployedLinkReferences": {}
}